:020000040000fa
:080000000002040000000000f2
:020000040000fa
:04000800c80200002a
:020000040000fa
:04000c00c802000026
:020000040000fa
:04001000c802000022
:020000040000fa
:04001400c80200001e
:020000040000fa
:04001800c80200001a
:020000040000fa
:04001c00c802000016
:020000040000fa
:04002000c802000012
:020000040000fa
:04002400c80200000e
:020000040000fa
:04002800c80200000a
:020000040000fa
:04002c00c802000006
:020000040000fa
:04003000c802000002
:020000040000fa
:04003400c8020000fe
:020000040000fa
:04003800c8020000fa
:020000040000fa
:04003c00c8020000f6
:020000040000fa
:04004000c8020000f2
:020000040000fa
:04004400c8020000ee
:020000040000fa
:04004800c8020000ea
:020000040000fa
:04004c00c8020000e6
:020000040000fa
:04005000c8020000e2
:020000040000fa
:04005400c8020000de
:020000040000fa
:04005800c8020000da
:020000040000fa
:04005c00c8020000d6
:020000040000fa
:04006000c8020000d2
:020000040000fa
:04006400c8020000ce
:020000040000fa
:04006800c8020000ca
:020000040000fa
:04006c00c8020000c6
:020000040000fa
:04007000c8020000c2
:020000040000fa
:04007400c8020000be
:020000040000fa
:04007800c8020000ba
:020000040000fa
:04007c00c8020000b6
:020000040000fa
:04008000c8020000b2
:020000040000fa
:04008400c8020000ae
:020000040000fa
:04008800c8020000aa
:020000040000fa
:04008c00c8020000a6
:020000040000fa
:04009000c8020000a2
:020000040000fa
:04009400c80200009e
:020000040000fa
:04009800c80200009a
:020000040000fa
:04009c00c802000096
:020000040000fa
:0400a000c802000092
:020000040000fa
:0400a400c80200008e
:020000040000fa
:0400a800c80200008a
:020000040000fa
:0400ac00c802000086
:020000040000fa
:0400b000c802000082
:020000040000fa
:0400b400c80200007e
:020000040000fa
:0400b800c80200007a
:020000040000fa
:0400bc00c802000076
:020000040000fa
:0400c000c802000072
:020000040000fa
:0400c400c80200006e
:020000040000fa
:0400c800c80200006a
:020000040000fa
:0400cc00c802000066
:020000040000fa
:0400d000c802000062
:020000040000fa
:0400d400c80200005e
:020000040000fa
:0400d800c80200005a
:020000040000fa
:0400dc00c802000056
:020000040000fa
:0400e000c802000052
:020000040000fa
:0400e400c80200004e
:020000040000fa
:0400e800c80200004a
:020000040000fa
:0400ec00c802000046
:020000040000fa
:0400f000c802000042
:020000040000fa
:0400f400c80200003e
:020000040000fa
:0400f800c80200003a
:020000040000fa
:0400fc00c802000036
:020000040000fa
:04010000c802000031
:020000040000fa
:04010400c80200002d
:020000040000fa
:04010800c802000029
:020000040000fa
:04010c00c802000025
:020000040000fa
:04011000c802000021
:020000040000fa
:04011400c80200001d
:020000040000fa
:04011800c802000019
:020000040000fa
:04011c00c802000015
:020000040000fa
:04012000c802000011
:020000040000fa
:04012400c80200000d
:020000040000fa
:04012800c802000009
:020000040000fa
:04012c00c802000005
:020000040000fa
:04013000c802000001
:020000040000fa
:04013400c8020000fd
:020000040000fa
:04013800c8020000f9
:020000040000fa
:04013c00c8020000f5
:020000040000fa
:04014000c8020000f1
:020000040000fa
:04014400c8020000ed
:020000040000fa
:04014800c8020000e9
:020000040000fa
:04014c00c8020000e5
:020000040000fa
:04015000c8020000e1
:020000040000fa
:04015400c8020000dd
:020000040000fa
:04015800c8020000d9
:020000040000fa
:04015c00c8020000d5
:020000040000fa
:04016000c8020000d1
:020000040000fa
:04016400c8020000cd
:020000040000fa
:04016800c8020000c9
:020000040000fa
:04016c00c8020000c5
:020000040000fa
:04017000c8020000c1
:020000040000fa
:04017400c8020000bd
:020000040000fa
:04017800c8020000b9
:020000040000fa
:04017c00c8020000b5
:020000040000fa
:04018000c8020000b1
:020000040000fa
:04020800c802000028
:020000040000fa
:04020c00c802000024
:020000040000fa
:04021000c802000020
:020000040000fa
:04021400c80200001c
:020000040000fa
:04021800c802000018
:020000040000fa
:04021c00c802000014
:020000040000fa
:04022000c802000010
:020000040000fa
:04022400c80200000c
:020000040000fa
:04022800c802000008
:020000040000fa
:04022c00c802000004
:020000040000fa
:04023000c802000000
:020000040000fa
:04023400c8020000fc
:020000040000fa
:04023800c8020000f8
:020000040000fa
:04023c00c8020000f4
:020000040000fa
:04024000c8020000f0
:020000040000fa
:04024400c8020000ec
:020000040000fa
:04024800c8020000e8
:020000040000fa
:04024c00c8020000e4
:020000040000fa
:04025000c8020000e0
:020000040000fa
:04025400c8020000dc
:020000040000fa
:04025800c8020000d8
:020000040000fa
:04025c00c8020000d4
:020000040000fa
:04026000c8020000d0
:020000040000fa
:04026400c8020000cc
:020000040000fa
:04026800c8020000c8
:020000040000fa
:04026c00c8020000c4
:020000040000fa
:04027000c8020000c0
:020000040000fa
:04027400c8020000bc
:020000040000fa
:04027800c8020000b8
:020000040000fa
:04027c00c8020000b4
:020000040000fa
:04028000c8020000b0
:020000040000fa
:04028400c8020000ac
:020000040000fa
:04028800c8020000a8
:020000040000fa
:04028c00c8020000a4
:020000040000fa
:04029000c8020000a0
:020000040000fa
:04029400c80200009c
:020000040000fa
:04029800c802000098
:020000040000fa
:04029c00c802000094
:020000040000fa
:0402a000c802000090
:020000040000fa
:0402a400c80200008c
:020000040000fa
:0402a800c802000088
:020000040000fa
:0402ac00c802000084
:020000040000fa
:0402b000c802000080
:020000040000fa
:0402b400c80200007c
:020000040000fa
:0402b800c802000078
:020000040000fa
:0402bc00c802000074
:020000040000fa
:0402c000c802000070
:020000040000fa
:0402c400c80200006c
:020000040000fa
:0402c800c802000068
:020000040000fa
:0402cc00c802000064
:020000040000fa
:0402d000c802000060
:020000040000fa
:0402d400c80200005c
:020000040000fa
:0402d800c802000058
:020000040000fa
:0402dc00c802000054
:020000040000fa
:0402e000c802000050
:020000040000fa
:0402e400c80200004c
:020000040000fa
:0402e800c802000048
:020000040000fa
:0402ec00c802000044
:020000040000fa
:0402f000c802000040
:020000040000fa
:0402f400c80200003c
:020000040000fa
:0402f800c802000038
:020000040000fa
:0402fc00c802000034
:020000040000fa
:04030000c80200002f
:020000040000fa
:04030400c80200002b
:020000040000fa
:04030800c802000027
:020000040000fa
:04030c00c802000023
:020000040000fa
:04031000c80200001f
:020000040000fa
:04031400c80200001b
:020000040000fa
:04031800c802000017
:020000040000fa
:04031c00c802000013
:020000040000fa
:04032000c80200000f
:020000040000fa
:04032400c80200000b
:020000040000fa
:04032800c802000007
:020000040000fa
:04032c00c802000003
:020000040000fa
:04033000c8020000ff
:020000040000fa
:04033400c8020000fb
:020000040000fa
:04033800c8020000f7
:020000040000fa
:04033c00c8020000f3
:020000040000fa
:04034000c8020000ef
:020000040000fa
:04034400c8020000eb
:020000040000fa
:04034800c8020000e7
:020000040000fa
:04034c00c8020000e3
:020000040000fa
:04035000c8020000df
:020000040000fa
:04035400c8020000db
:020000040000fa
:04035800c8020000d7
:020000040000fa
:04035c00c8020000d3
:020000040000fa
:04036000c8020000cf
:020000040000fa
:04036400c8020000cb
:020000040000fa
:04036800c8020000c7
:020000040000fa
:04036c00c8020000c3
:020000040000fa
:04037000c8020000bf
:020000040000fa
:04037400c8020000bb
:020000040000fa
:04037800c8020000b7
:020000040000fa
:04037c00c8020000b3
:020000040000fa
:04038000c8020000af
:020000040000fa
:100400000f8020000e7f22000e01880000000000f7
:10041000000020000000e000020032000001200087
:1004200020028800140007005b0007000000e000c5
:1004300003003a0000002000010020000200370005
:100440000000200001002000810f70000100320038
:1004500014000700000020000000e000020032004d
:1004600000000200000000003a0802000000000046
:100470000040da000000fe004440a90020012000f6
:100480000000e0000300320000002000a00188000e
:100490004440a800000006008a1f78008b1f7800e7
:1004a0000000060091018800800478000000eb0045
:1004b0001a003700e284440032a0b4009905ba0063
:1004c000e284440032a0b4009906ba00e2844400f9
:1004d00032a0b4000006eb00476fde00fd07b2005b
:1004e000636ce10003003a00ebff07000000eb0043
:1004f0000a003700606ce10004003a00005deb0088
:100500008b05e900fdff3e00040037006168e10053
:10051000010032000086eb000b00070019c7ba008b
:100520001905ba000e04e00003003a000a00e000da
:10053000e0ff3a0000000600fe07b2009e018800be
:100540008a047800f5ff3700395dba008b05e900b1
:100550000c003200295dba008b05e900080032006a
:100560000c00e00003003a00e284440032a0b40032
:10057000f5ff370019ddba008b05e900faff3a00f4
:100580008904e800e184440032a0b40000000600c1
:100590000040da000000fe000000050003f0a200a9
:1005a000889fbe008a9fbe008c1f7800f400070061
:1005b000fb0033006450e1004f0032006420e10092
:1005c0005200320003826c0007003b000905d00096
:1005d0000306d000820f54000c065d0002003900b3
:1005e00002003200890178000306780085825500f8
:1005f00004003d000003fd008103fd008502ea00c8
:100600008b854200840f720002003b0060001000e6
:10061000e08018006011b8000005eb007a28e100c6
:100620000a00390006007800c75ddd00f707b20058
:10063000878075002d003700828171000a017800e3
:10064000610560008180d1000080d3008502e9004f
:10065000f9ff3b00060440008784480002003b008d
:1006600060041400e0841c000988a3000700320025
:100670008a81710082817100610164008904d10066
:100680000884d3008b05e800170037000978a30021
:1006900013003a000b00e000130034008b05e90062
:1006a0000804440089844c000a4474000978a300bb
:1006b0000d003a000b00e000070034008b05e90054
:1006c0000804440089844c0001003a000b0020001b
:1006d0000978a300f7ff32000001eb0002003700a9
:1006e000828171000a0178006a0007000cf0a700ff
:1006f00001f0a000b30037006420e10002003a00de
:10070000838f6c00b30033000801be000200be00fe
:10071000ac003700889fbe008a9fbe008c1f780007
:10072000970007009e00330003866c006450e100d0
:100730002e0032006420e100330032006150e100fd
:100740002f0032006120e100310032008585550024
:10075000eb07b00009002000080420000500370066
:100760000804440089844c000a0031000603430059
:1007700087834b000001530081815b00f8ff330049
:100780000203be000800a0000804440089844c0055
:10079000f6ff3900c639dd00830173000100320025
:1007a000130020008904d1000884d3000998a30015
:1007b000050032000800a7000300a0008904d10052
:1007c0000884d3008b05e8008904d1000884d30095
:1007d0000001eb000281d2002e00070001f0a10011
:1007e0000cf0a70001f0a000760037006420e100c3
:1007f000780032000801be000200be00f7ff37009b
:100800006120e100730032006000b800f3ff3700a0
:100810000000200001f82700f0ff37000001be00b3
:10082000420007000470a70003f0a10003f8a30032
:1008300013003a006509b1001000320009003500cc
:100840006928e100020035000100280000000500d1
:1008500000004000818048008502e900fcff3a006a
:1008600000000600f88f4200050035008100d1002d
:100870000080d3008502e800fcff3a00000006007b
:100880008000eb00000005004f89de008201780047
:100890008700370081002000618055000b003d007b
:1008a0000b00200061fe2f000100e1001d0034005c
:1008b00082817100610164008904d1000884d30041
:1008c0000000e800faff3a007100200061006400b7
:1008d000030070000200600009003200610444005f
:1008e000e0844c000988a500050032008b05e80073
:1008f0006808e10002003a008904d1000884d300ae
:10090000f20f20000258e10005003d00c75ddd0048
:10091000f907b20089807500080078000000060021
:100920000bf827008b00780000000500c70ade00e6
:10093000f107b200f50fb20008003200e1cf42002b
:10094000020032000170a00024000500810f700039
:10095000010032000408050044000500810f70000a
:1009600002003a00140005008502e9000000400082
:1009700081c04800fcff3b000170a000240005007e
:100980000004be00e9ff07000003be000405be002e
:100990000200be00e5ff0700844f7500000006005e
:1009a0000200be006450e100050036006420e10052
:1009b000020036000968a30001003a000800be00ea
:1009c0000160a0004f0678004f05be004f04be0036
:1009d00000000600f0ff2f00f1ff2700f9ff3700ad
:1009e000889fbe008a9fbe008c1f7800e4ff07002e
:1009f000ebff330003866c006450e10024003200fa
:100a00006420e100270032006150e1002200320042
:100a10006120e100210032008b854200eb07b1002c
:100a20000134b800003ab8000804420089844a0042
:100a3000013ab8000030b8008880400009014a003f
:100a4000040033000000400081804800020149009a
:100a50008b05e900c909dd00830170000100320047
:100a600013002000c814de004814dd004709de0032
:100a70001200b200c808de000884700085ff07007d
:100a800001f0a1000cf0a70001f0a000cdff37009d
:100a90006120e100cfff32000801be000200be006d
:100aa000f7ff37006150e100fcff3a00c9ff370053
:100ab000881f7800030478000300e00007003d0071
:100ac00060001000e080180060011900e08119004a
:100ad00002003b0001f02d00030037000400070076
:100ae00008f0a70001f0a0004f0478000000060005
:100af000889fbe008a9fbe000082700004027100c1
:100b000004827100260032000004be000200be0014
:100b10006011b8006b092000950220000182cf000f
:100b20000a0039000541b1000082cf0007003900fa
:100b30000541b1000982cf00040039000541b10030
:100b40000882cf00010039000541b1000542520082
:100b5000120032000a003b008281710061016400d2
:100b60008100d1000080d3008984d3000884d300a1
:100b70008b05e8000442e800f7ff3a000700370061
:100b80000804440089844c0000004800818048002b
:100b90008b05e9000442e900f9ff3a003dff070038
:0c0ba0004f05be004f04be000000060020
:020000040000fa
:100bac00436f0000756300006f750000204e00005d
:100bbc0061740000686100006c6900006520000031
:040bcc000000000025
:020000040000fa
:100bd0000200fa00000f7800007d200001002000d4
:100be000670107001e0078000000e00002003a00e4
:100bf000cd42a90001003700cd42a800007d2000b1
:100c0000010020005e0107000080fa0000000600dd
:100c10000200fa00000f78001e0078000000e000db
:100c200002003a00cd62a90001003700cd62a800a1
:100c30000080fa00000006000200fa00004f780071
:100c400010002000e2ff07001e00fb00f000600023
:100c500010c0b3000100e00001003c000040eb00c8
:100c60000080fb00610060004200dd002116800072
:100c70000120a10001007000201688009e00fb00ea
:100c8000000220008080600010c0b3000100e0007e
:100c900001003c000040eb000080fb0061006000b0
:100ca0004300dd00211680000130a100010070002a
:100cb000201688009e00fb00000420008080600059
:100cc00010c0b3000100e00001003c000040eb0058
:100cd0000080fb00610060004200dd0061168000c2
:100ce0000120a10001007000601688009e00fb003a
:100cf000000820008080600010c0b3000100e00008
:100d000001003c000040eb000080fb00610060003f
:100d10004300dd00611680000130a1000100700079
:100d2000601688000000eb00a9ff070010002000fb
:100d3000a7ff07001e00fb00e100600010c0b30029
:100d40000100e00001003c000040eb000080fb00df
:100d5000610060004200dd00211680000120a1003a
:100d600001007000201688001e00fb00e2006000f9
:100d700010c0b3000100e00001003c000040eb00a7
:100d80000080fb00610060004300dd002116800050
:100d90000130a10001007000201688001e00fb0039
:100da000e400600010c0b3000100e00001003c005e
:100db0000040eb000080fb00610060004200dd00ad
:100dc000611680000120a1000100700060168800fb
:100dd0001e00fb00e800600010c0b3000100e0004e
:100de00001003c000040eb000080fb00610060005f
:100df0004300dd00611680000130a1000100700099
:100e0000601688000000eb0071ff07000080fa0008
:100e1000000006000200fa00004f780010002000d9
:100e20006bff07001e00fb00e100600010c0b30074
:100e30000100e00001003c000040eb000080fb00ee
:100e4000610060004200dd00211680000120a10049
:100e500001007000201688001e00fb00e200600008
:100e600010c0b3000100e00001003c000040eb00b6
:100e70000080fb00610060004300dd00211680005f
:100e80000130a10001007000201688001e00fb0048
:100e9000e400600010c0b3000100e00001003c006d
:100ea0000040eb000080fb00610060004200dd00bc
:100eb000611680000120a10001007000601688000a
:100ec0001e00fb00e800600010c0b3000100e0005d
:100ed00001003c000040eb000080fb00610060006e
:100ee0004300dd00611680000130a10001007000a8
:100ef000601688000000eb0035ff07000080fa0054
:100f0000000006000400fa002047980031479800ce
:100f10002e4090000000fb00c600dd003e40900027
:100f20000000fb00008f40001e00780000407800a9
:100f30000074a00040ff07000080fa0000000600d7
:100f40000000fa000000eb0031ff070020c0b300f2
:100f5000b0ff070010c0b30037ff070020c0b30088
:100f600035ff070080c2b30033ff0700e0c0b300c5
:100f700031ff070060c0b3002fff07000080fa00b8
:100f8000000006000400fa0010079800100020007e
:100f90001fff07009e009000010f78000700370038
:100fa00000d4200031002000750007001e007800ea
:100fb0001040780020ff07001e0fe8001e00780098
:100fc000104078000004e000f5ff3a000000eb005c
:100fd0000fff07000080fa00000006000000fa0082
:100fe0002023a8003000200001002000640007003a
:100ff0002023a900000000000019800061006000ab
:101000000000e000fcff3200001880000080fa00c1
:10101000000006000000fa00f0df2f0060198800d1
:101020002023ef0090002000401988003023ef00bb
:101030002223ef00200020002019880021e3a800cf
:1010400007e2a900c022ef00c822ef00c9e2a80011
:10105000c9c2a800c9a2a800c922a800c902a80044
:10106000c8e2a800c422ef00cc22ef000080fa0002
:10107000000006000200fa00e6ff0700b0ff0700cc
:10108000d6ff0700cf80de00fffd070002002c0026
:10109000f34724009ffd070002002000031f2400e7
:1010a0004ffe070002002000232824003cfd07001b
:1010b000dafd0700004f780010002000d4fe070082
:1010c0001e407800dcfe07000000eb00d0fe0700a9
:1010d00000c1b300d8fe07005116800000102000a8
:1010e000008060000000e00002003200605d280027
:1010f000a4ff07005116800000202000008060003f
:101100000000e0000200320080c1b300cafe070008
:101110005116800000082000008060000000e00000
:101120000400320010c0b300c3fe070020c0b300ab
:10113000c1fe0700511680000000240000806000fe
:101140000000e0000300320000c1b300bafe070057
:101150000700370051168000000022000080600068
:101160000000e0000200320040c1b300b2fe070000
:1011700000d420003100200001000700c0ff37002c
:020000040000fa
:10118000f03fb1000180b10006003500ee03090018
:1011900000000000403fb1000180b100fbff3d00b6
:1011a0001000b000203fb0000200350000800900b0
:0811b000000000000000060031
:020000040000fa
:020000040001f9
:0457f0007fff000037
:020000040000fa
:020000040001f9
:0457f400fffc0000b6
:020000040000fa
:020000040001f9
:0457f8009fff00000f
:020000040000fa
:020000040001f9
:0457fc007f3f0000eb
:00000001FF
